{
  "contractName": "Marketplace",
  "abi": [
    {
      "constant": true,
      "inputs": [],
      "name": "name",
      "outputs": [
        {
          "name": "",
          "type": "string"
        }
      ],
      "payable": false,
      "stateMutability": "view",
      "type": "function",
      "signature": "0x06fdde03"
    },
    {
      "constant": true,
      "inputs": [
        {
          "name": "",
          "type": "uint256"
        }
      ],
      "name": "products",
      "outputs": [
        {
          "name": "id",
          "type": "uint256"
        },
        {
          "name": "name",
          "type": "string"
        },
        {
          "name": "description",
          "type": "string"
        },
        {
          "name": "image",
          "type": "string"
        },
        {
          "name": "price",
          "type": "uint256"
        },
        {
          "name": "owner",
          "type": "address"
        },
        {
          "name": "purchased",
          "type": "bool"
        }
      ],
      "payable": false,
      "stateMutability": "view",
      "type": "function",
      "signature": "0x7acc0b20"
    },
    {
      "constant": true,
      "inputs": [],
      "name": "productCount",
      "outputs": [
        {
          "name": "",
          "type": "uint256"
        }
      ],
      "payable": false,
      "stateMutability": "view",
      "type": "function",
      "signature": "0xe0f6ef87"
    },
    {
      "inputs": [],
      "payable": false,
      "stateMutability": "nonpayable",
      "type": "constructor",
      "signature": "constructor"
    },
    {
      "anonymous": false,
      "inputs": [
        {
          "indexed": false,
          "name": "id",
          "type": "uint256"
        },
        {
          "indexed": false,
          "name": "name",
          "type": "string"
        },
        {
          "indexed": false,
          "name": "description",
          "type": "string"
        },
        {
          "indexed": false,
          "name": "image",
          "type": "string"
        },
        {
          "indexed": false,
          "name": "price",
          "type": "uint256"
        },
        {
          "indexed": false,
          "name": "owner",
          "type": "address"
        },
        {
          "indexed": false,
          "name": "purchased",
          "type": "bool"
        }
      ],
      "name": "ProductCreated",
      "type": "event",
      "signature": "0xf6556a2042c0645cd94a9a74cb0f2deb50d7d8e8db9be80c91df77f5ec6039a6"
    },
    {
      "anonymous": false,
      "inputs": [
        {
          "indexed": false,
          "name": "name",
          "type": "string"
        },
        {
          "indexed": false,
          "name": "description",
          "type": "string"
        },
        {
          "indexed": false,
          "name": "image",
          "type": "string"
        },
        {
          "indexed": false,
          "name": "price",
          "type": "uint256"
        }
      ],
      "name": "ProductUpdate",
      "type": "event",
      "signature": "0x158ff331eaf590aa568e5fcd091345a6600e411336224d481cdb179510c5bd81"
    },
    {
      "anonymous": false,
      "inputs": [
        {
          "indexed": false,
          "name": "id",
          "type": "uint256"
        }
      ],
      "name": "ProductDelete",
      "type": "event",
      "signature": "0x7f5bdbe466284b9f27364d1a4332dcbb398e8ab932a93be1113f7b3724027f85"
    },
    {
      "anonymous": false,
      "inputs": [
        {
          "indexed": false,
          "name": "id",
          "type": "uint256"
        },
        {
          "indexed": false,
          "name": "name",
          "type": "string"
        },
        {
          "indexed": false,
          "name": "description",
          "type": "string"
        },
        {
          "indexed": false,
          "name": "image",
          "type": "string"
        },
        {
          "indexed": false,
          "name": "price",
          "type": "uint256"
        },
        {
          "indexed": false,
          "name": "owner",
          "type": "address"
        },
        {
          "indexed": false,
          "name": "purchased",
          "type": "bool"
        }
      ],
      "name": "ProductPurchased",
      "type": "event",
      "signature": "0xe7172e22e6891fe7d6f12679abf0ec3b2ccb1e7da9f6de825c375537a7bb700e"
    },
    {
      "anonymous": false,
      "inputs": [
        {
          "indexed": false,
          "name": "id",
          "type": "uint256"
        },
        {
          "indexed": false,
          "name": "name",
          "type": "string"
        },
        {
          "indexed": false,
          "name": "description",
          "type": "string"
        },
        {
          "indexed": false,
          "name": "image",
          "type": "string"
        },
        {
          "indexed": false,
          "name": "price",
          "type": "uint256"
        },
        {
          "indexed": false,
          "name": "owner",
          "type": "address"
        },
        {
          "indexed": false,
          "name": "purchased",
          "type": "bool"
        }
      ],
      "name": "ProductTrade",
      "type": "event",
      "signature": "0x0cf142c7b7e851918b0780fbe493717b81ae37a221d3bf218216afaa6c15ca6d"
    },
    {
      "constant": false,
      "inputs": [
        {
          "name": "_name",
          "type": "string"
        },
        {
          "name": "_description",
          "type": "string"
        },
        {
          "name": "_image",
          "type": "string"
        },
        {
          "name": "_price",
          "type": "uint256"
        }
      ],
      "name": "createProduct",
      "outputs": [],
      "payable": false,
      "stateMutability": "nonpayable",
      "type": "function",
      "signature": "0x1b61040d"
    },
    {
      "constant": false,
      "inputs": [
        {
          "name": "_id",
          "type": "uint256"
        },
        {
          "name": "_name",
          "type": "string"
        },
        {
          "name": "_description",
          "type": "string"
        },
        {
          "name": "_image",
          "type": "string"
        },
        {
          "name": "_price",
          "type": "uint256"
        }
      ],
      "name": "updateProduct",
      "outputs": [
        {
          "name": "success",
          "type": "bool"
        }
      ],
      "payable": true,
      "stateMutability": "payable",
      "type": "function",
      "signature": "0x17bf06f3"
    },
    {
      "constant": false,
      "inputs": [
        {
          "name": "_id",
          "type": "uint256"
        }
      ],
      "name": "deleteProduct",
      "outputs": [
        {
          "name": "success",
          "type": "bool"
        }
      ],
      "payable": false,
      "stateMutability": "nonpayable",
      "type": "function",
      "signature": "0xed90c7b7"
    },
    {
      "constant": false,
      "inputs": [
        {
          "name": "_id",
          "type": "uint256"
        }
      ],
      "name": "purchaseProduct",
      "outputs": [],
      "payable": true,
      "stateMutability": "payable",
      "type": "function",
      "signature": "0x38e76a03"
    },
    {
      "constant": false,
      "inputs": [
        {
          "name": "_id",
          "type": "uint256"
        },
        {
          "name": "_id2",
          "type": "uint256"
        }
      ],
      "name": "purchaseTrade",
      "outputs": [],
      "payable": true,
      "stateMutability": "payable",
      "type": "function",
      "signature": "0x2785cbed"
    }
  ],
  "bytecode": "0x608060405260006001553480156200001657600080fd5b506040805190810160405280600981526020017f47616d655472616465000000000000000000000000000000000000000000000081525060009080519060200190620000649291906200006b565b506200011a565b828054600181600116156101000203166002900490600052602060002090601f016020900481019282601f10620000ae57805160ff1916838001178555620000df565b82800160010185558215620000df579182015b82811115620000de578251825591602001919060010190620000c1565b5b509050620000ee9190620000f2565b5090565b6200011791905b8082111562000113576000816000905550600101620000f9565b5090565b90565b612878806200012a6000396000f3fe60806040526004361061008e576000357c0100000000000000000000000000000000000000000000000000000000900463ffffffff16806306fdde031461009357806317bf06f3146101235780631b61040d146103385780632785cbed1461053857806338e76a03146105705780637acc0b201461059e578063e0f6ef8714610776578063ed90c7b7146107a1575b600080fd5b34801561009f57600080fd5b506100a86107f4565b6040518080602001828103825283818151815260200191508051906020019080838360005b838110156100e85780820151818401526020810190506100cd565b50505050905090810190601f1680156101155780820380516001836020036101000a031916815260200191505b509250505060405180910390f35b61031e600480360360a081101561013957600080fd5b81019080803590602001909291908035906020019064010000000081111561016057600080fd5b82018360208201111561017257600080fd5b8035906020019184600183028401116401000000008311171561019457600080fd5b91908080601f016020809104026020016040519081016040528093929190818152602001838380828437600081840152601f19601f820116905080830192505050505050509192919290803590602001906401000000008111156101f757600080fd5b82018360208201111561020957600080fd5b8035906020019184600183028401116401000000008311171561022b57600080fd5b91908080601f016020809104026020016040519081016040528093929190818152602001838380828437600081840152601f19601f8201169050808301925050505050505091929192908035906020019064010000000081111561028e57600080fd5b8201836020820111156102a057600080fd5b803590602001918460018302840111640100000000831117156102c257600080fd5b91908080601f016020809104026020016040519081016040528093929190818152602001838380828437600081840152601f19601f82011690508083019250505050505050919291929080359060200190929190505050610892565b604051808215151515815260200191505060405180910390f35b34801561034457600080fd5b506105366004803603608081101561035b57600080fd5b810190808035906020019064010000000081111561037857600080fd5b82018360208201111561038a57600080fd5b803590602001918460018302840111640100000000831117156103ac57600080fd5b91908080601f016020809104026020016040519081016040528093929190818152602001838380828437600081840152601f19601f8201169050808301925050505050505091929192908035906020019064010000000081111561040f57600080fd5b82018360208201111561042157600080fd5b8035906020019184600183028401116401000000008311171561044357600080fd5b91908080601f016020809104026020016040519081016040528093929190818152602001838380828437600081840152601f19601f820116905080830192505050505050509192919290803590602001906401000000008111156104a657600080fd5b8201836020820111156104b857600080fd5b803590602001918460018302840111640100000000831117156104da57600080fd5b91908080601f016020809104026020016040519081016040528093929190818152602001838380828437600081840152601f19601f82011690508083019250505050505050919291929080359060200190929190505050610dde565b005b61056e6004803603604081101561054e57600080fd5b810190808035906020019092919080359060200190929190505050611118565b005b61059c6004803603602081101561058657600080fd5b8101908080359060200190929190505050611b0c565b005b3480156105aa57600080fd5b506105d7600480360360208110156105c157600080fd5b8101908080359060200190929190505050612149565b604051808881526020018060200180602001806020018781526020018673ffffffffffffffffffffffffffffffffffffffff1673ffffffffffffffffffffffffffffffffffffffff1681526020018515151515815260200184810384528a818151815260200191508051906020019080838360005b8381101561066757808201518184015260208101905061064c565b50505050905090810190601f1680156106945780820380516001836020036101000a031916815260200191505b50848103835289818151815260200191508051906020019080838360005b838110156106cd5780820151818401526020810190506106b2565b50505050905090810190601f1680156106fa5780820380516001836020036101000a031916815260200191505b50848103825288818151815260200191508051906020019080838360005b83811015610733578082015181840152602081019050610718565b50505050905090810190601f1680156107605780820380516001836020036101000a031916815260200191505b509a505050505050505050505060405180910390f35b34801561078257600080fd5b5061078b612380565b6040518082815260200191505060405180910390f35b3480156107ad57600080fd5b506107da600480360360208110156107c457600080fd5b8101908080359060200190929190505050612386565b604051808215151515815260200191505060405180910390f35b60008054600181600116156101000203166002900480601f01602080910402602001604051908101604052809291908181526020018280546001816001161561010002031660029004801561088a5780601f1061085f5761010080835404028352916020019161088a565b820191906000526020600020905b81548152906001019060200180831161086d57829003601f168201915b505050505081565b600061089c612602565b6002600088815260200190815260200160002060e0604051908101604052908160008201548152602001600182018054600181600116156101000203166002900480601f01602080910402602001604051908101604052809291908181526020018280546001816001161561010002031660029004801561095e5780601f106109335761010080835404028352916020019161095e565b820191906000526020600020905b81548152906001019060200180831161094157829003601f168201915b50505050508152602001600282018054600181600116156101000203166002900480601f016020809104026020016040519081016040528092919081815260200182805460018160011615610100020316600290048015610a005780601f106109d557610100808354040283529160200191610a00565b820191906000526020600020905b8154815290600101906020018083116109e357829003601f168201915b50505050508152602001600382018054600181600116156101000203166002900480601f016020809104026020016040519081016040528092919081815260200182805460018160011615610100020316600290048015610aa25780601f10610a7757610100808354040283529160200191610aa2565b820191906000526020600020905b815481529060010190602001808311610a8557829003601f168201915b50505050508152602001600482015481526020016005820160009054906101000a900473ffffffffffffffffffffffffffffffffffffffff1673ffffffffffffffffffffffffffffffffffffffff1673ffffffffffffffffffffffffffffffffffffffff1681526020016005820160149054906101000a900460ff161515151581525050905060008160a0015190503373ffffffffffffffffffffffffffffffffffffffff168173ffffffffffffffffffffffffffffffffffffffff16141515610b6b57600080fd5b60008090505b60015481111515610dcd578860026000838152602001908152602001600020600001541415610dc05787600260008381526020019081526020016000206001019080519060200190610bc4929190612658565b5086600260008381526020019081526020016000206002019080519060200190610bef929190612658565b5085600260008381526020019081526020016000206003019080519060200190610c1a929190612658565b508460026000838152602001908152602001600020600401819055507f158ff331eaf590aa568e5fcd091345a6600e411336224d481cdb179510c5bd818888888860405180806020018060200180602001858152602001848103845288818151815260200191508051906020019080838360005b83811015610ca9578082015181840152602081019050610c8e565b50505050905090810190601f168015610cd65780820380516001836020036101000a031916815260200191505b50848103835287818151815260200191508051906020019080838360005b83811015610d0f578082015181840152602081019050610cf4565b50505050905090810190601f168015610d3c5780820380516001836020036101000a031916815260200191505b50848103825286818151815260200191508051906020019080838360005b83811015610d75578082015181840152602081019050610d5a565b50505050905090810190601f168015610da25780820380516001836020036101000a031916815260200191505b5097505050505050505060405180910390a160019350505050610dd5565b8080600101915050610b71565b506000925050505b95945050505050565b60008451111515610dee57600080fd5b60008351111515610dfe57600080fd5b60016000815480929190600101919050555060e06040519081016040528060015481526020018581526020018481526020018381526020018281526020013373ffffffffffffffffffffffffffffffffffffffff16815260200160001515815250600260006001548152602001908152602001600020600082015181600001556020820151816001019080519060200190610e9a9291906126d8565b506040820151816002019080519060200190610eb79291906126d8565b506060820151816003019080519060200190610ed49291906126d8565b506080820151816004015560a08201518160050160006101000a81548173ffffffffffffffffffffffffffffffffffffffff021916908373ffffffffffffffffffffffffffffffffffffffff16021790555060c08201518160050160146101000a81548160ff0219169083151502179055509050507ff6556a2042c0645cd94a9a74cb0f2deb50d7d8e8db9be80c91df77f5ec6039a660015485858585336000604051808881526020018060200180602001806020018781526020018673ffffffffffffffffffffffffffffffffffffffff1673ffffffffffffffffffffffffffffffffffffffff1681526020018515151515815260200184810384528a818151815260200191508051906020019080838360005b83811015611004578082015181840152602081019050610fe9565b50505050905090810190601f1680156110315780820380516001836020036101000a031916815260200191505b50848103835289818151815260200191508051906020019080838360005b8381101561106a57808201518184015260208101905061104f565b50505050905090810190601f1680156110975780820380516001836020036101000a031916815260200191505b50848103825288818151815260200191508051906020019080838360005b838110156110d05780820151818401526020810190506110b5565b50505050905090810190601f1680156110fd5780820380516001836020036101000a031916815260200191505b509a505050505050505050505060405180910390a150505050565b611120612602565b6002600084815260200190815260200160002060e0604051908101604052908160008201548152602001600182018054600181600116156101000203166002900480601f0160208091040260200160405190810160405280929190818152602001828054600181600116156101000203166002900480156111e25780601f106111b7576101008083540402835291602001916111e2565b820191906000526020600020905b8154815290600101906020018083116111c557829003601f168201915b50505050508152602001600282018054600181600116156101000203166002900480601f0160208091040260200160405190810160405280929190818152602001828054600181600116156101000203166002900480156112845780601f1061125957610100808354040283529160200191611284565b820191906000526020600020905b81548152906001019060200180831161126757829003601f168201915b50505050508152602001600382018054600181600116156101000203166002900480601f0160208091040260200160405190810160405280929190818152602001828054600181600116156101000203166002900480156113265780601f106112fb57610100808354040283529160200191611326565b820191906000526020600020905b81548152906001019060200180831161130957829003601f168201915b50505050508152602001600482015481526020016005820160009054906101000a900473ffffffffffffffffffffffffffffffffffffffff1673ffffffffffffffffffffffffffffffffffffffff1673ffffffffffffffffffffffffffffffffffffffff1681526020016005820160149054906101000a900460ff16151515158152505090506113b4612602565b6002600084815260200190815260200160002060e0604051908101604052908160008201548152602001600182018054600181600116156101000203166002900480601f0160208091040260200160405190810160405280929190818152602001828054600181600116156101000203166002900480156114765780601f1061144b57610100808354040283529160200191611476565b820191906000526020600020905b81548152906001019060200180831161145957829003601f168201915b50505050508152602001600282018054600181600116156101000203166002900480601f0160208091040260200160405190810160405280929190818152602001828054600181600116156101000203166002900480156115185780601f106114ed57610100808354040283529160200191611518565b820191906000526020600020905b8154815290600101906020018083116114fb57829003601f168201915b50505050508152602001600382018054600181600116156101000203166002900480601f0160208091040260200160405190810160405280929190818152602001828054600181600116156101000203166002900480156115ba5780601f1061158f576101008083540402835291602001916115ba565b820191906000526020600020905b81548152906001019060200180831161159d57829003601f168201915b50505050508152602001600482015481526020016005820160009054906101000a900473ffffffffffffffffffffffffffffffffffffffff1673ffffffffffffffffffffffffffffffffffffffff1673ffffffffffffffffffffffffffffffffffffffff1681526020016005820160149054906101000a900460ff161515151581525050905060008260a001519050600083600001511180156116635750600154836000015111155b151561166e57600080fd5b8260800151341015151561168157600080fd5b8260c0015115151561169257600080fd5b338360a0019073ffffffffffffffffffffffffffffffffffffffff16908173ffffffffffffffffffffffffffffffffffffffff1681525050808260a0019073ffffffffffffffffffffffffffffffffffffffff16908173ffffffffffffffffffffffffffffffffffffffff168152505060008360c0019015159081151581525050826002600087815260200190815260200160002060008201518160000155602082015181600101908051906020019061174d9291906126d8565b50604082015181600201908051906020019061176a9291906126d8565b5060608201518160030190805190602001906117879291906126d8565b506080820151816004015560a08201518160050160006101000a81548173ffffffffffffffffffffffffffffffffffffffff021916908373ffffffffffffffffffffffffffffffffffffffff16021790555060c08201518160050160146101000a81548160ff02191690831515021790555090505081600260008681526020019081526020016000206000820151816000015560208201518160010190805190602001906118369291906126d8565b5060408201518160020190805190602001906118539291906126d8565b5060608201518160030190805190602001906118709291906126d8565b506080820151816004015560a08201518160050160006101000a81548173ffffffffffffffffffffffffffffffffffffffff021916908373ffffffffffffffffffffffffffffffffffffffff16021790555060c08201518160050160146101000a81548160ff0219169083151502179055509050508073ffffffffffffffffffffffffffffffffffffffff166108fc349081150290604051600060405180830381858888f1935050505015801561192b573d6000803e3d6000fd5b507fe7172e22e6891fe7d6f12679abf0ec3b2ccb1e7da9f6de825c375537a7bb700e6001548460200151856040015186606001518760800151336001604051808881526020018060200180602001806020018781526020018673ffffffffffffffffffffffffffffffffffffffff1673ffffffffffffffffffffffffffffffffffffffff1681526020018515151515815260200184810384528a818151815260200191508051906020019080838360005b838110156119f75780820151818401526020810190506119dc565b50505050905090810190601f168015611a245780820380516001836020036101000a031916815260200191505b50848103835289818151815260200191508051906020019080838360005b83811015611a5d578082015181840152602081019050611a42565b50505050905090810190601f168015611a8a5780820380516001836020036101000a031916815260200191505b50848103825288818151815260200191508051906020019080838360005b83811015611ac3578082015181840152602081019050611aa8565b50505050905090810190601f168015611af05780820380516001836020036101000a031916815260200191505b509a505050505050505050505060405180910390a15050505050565b611b14612602565b6002600083815260200190815260200160002060e0604051908101604052908160008201548152602001600182018054600181600116156101000203166002900480601f016020809104026020016040519081016040528092919081815260200182805460018160011615610100020316600290048015611bd65780601f10611bab57610100808354040283529160200191611bd6565b820191906000526020600020905b815481529060010190602001808311611bb957829003601f168201915b50505050508152602001600282018054600181600116156101000203166002900480601f016020809104026020016040519081016040528092919081815260200182805460018160011615610100020316600290048015611c785780601f10611c4d57610100808354040283529160200191611c78565b820191906000526020600020905b815481529060010190602001808311611c5b57829003601f168201915b50505050508152602001600382018054600181600116156101000203166002900480601f016020809104026020016040519081016040528092919081815260200182805460018160011615610100020316600290048015611d1a5780601f10611cef57610100808354040283529160200191611d1a565b820191906000526020600020905b815481529060010190602001808311611cfd57829003601f168201915b50505050508152602001600482015481526020016005820160009054906101000a900473ffffffffffffffffffffffffffffffffffffffff1673ffffffffffffffffffffffffffffffffffffffff1673ffffffffffffffffffffffffffffffffffffffff1681526020016005820160149054906101000a900460ff161515151581525050905060008160a00151905060008260000151118015611dc35750600154826000015111155b1515611dce57600080fd5b81608001513410151515611de157600080fd5b8160c00151151515611df257600080fd5b338260a0019073ffffffffffffffffffffffffffffffffffffffff16908173ffffffffffffffffffffffffffffffffffffffff168152505060008260c00190151590811515815250508160026000858152602001908152602001600020600082015181600001556020820151816001019080519060200190611e759291906126d8565b506040820151816002019080519060200190611e929291906126d8565b506060820151816003019080519060200190611eaf9291906126d8565b506080820151816004015560a08201518160050160006101000a81548173ffffffffffffffffffffffffffffffffffffffff021916908373ffffffffffffffffffffffffffffffffffffffff16021790555060c08201518160050160146101000a81548160ff0219169083151502179055509050508073ffffffffffffffffffffffffffffffffffffffff166108fc349081150290604051600060405180830381858888f19350505050158015611f6a573d6000803e3d6000fd5b507fe7172e22e6891fe7d6f12679abf0ec3b2ccb1e7da9f6de825c375537a7bb700e6001548360200151846040015185606001518660800151336001604051808881526020018060200180602001806020018781526020018673ffffffffffffffffffffffffffffffffffffffff1673ffffffffffffffffffffffffffffffffffffffff1681526020018515151515815260200184810384528a818151815260200191508051906020019080838360005b8381101561203657808201518184015260208101905061201b565b50505050905090810190601f1680156120635780820380516001836020036101000a031916815260200191505b50848103835289818151815260200191508051906020019080838360005b8381101561209c578082015181840152602081019050612081565b50505050905090810190601f1680156120c95780820380516001836020036101000a031916815260200191505b50848103825288818151815260200191508051906020019080838360005b838110156121025780820151818401526020810190506120e7565b50505050905090810190601f16801561212f5780820380516001836020036101000a031916815260200191505b509a505050505050505050505060405180910390a1505050565b6002602052806000526040600020600091509050806000015490806001018054600181600116156101000203166002900480601f0160208091040260200160405190810160405280929190818152602001828054600181600116156101000203166002900480156121fb5780601f106121d0576101008083540402835291602001916121fb565b820191906000526020600020905b8154815290600101906020018083116121de57829003601f168201915b505050505090806002018054600181600116156101000203166002900480601f0160208091040260200160405190810160405280929190818152602001828054600181600116156101000203166002900480156122995780601f1061226e57610100808354040283529160200191612299565b820191906000526020600020905b81548152906001019060200180831161227c57829003601f168201915b505050505090806003018054600181600116156101000203166002900480601f0160208091040260200160405190810160405280929190818152602001828054600181600116156101000203166002900480156123375780601f1061230c57610100808354040283529160200191612337565b820191906000526020600020905b81548152906001019060200180831161231a57829003601f168201915b5050505050908060040154908060050160009054906101000a900473ffffffffffffffffffffffffffffffffffffffff16908060050160149054906101000a900460ff16905087565b60015481565b60008060015411151561239857600080fd5b60008090505b600154811115156125f75782600260008381526020019081526020016000206000015414156125ea576002600060018054038152602001908152602001600020600260008381526020019081526020016000206000820154816000015560018201816001019080546001816001161561010002031660029004612422929190612758565b506002820181600201908054600181600116156101000203166002900461244a929190612758565b5060038201816003019080546001816001161561010002031660029004612472929190612758565b50600482015481600401556005820160009054906101000a900473ffffffffffffffffffffffffffffffffffffffff168160050160006101000a81548173ffffffffffffffffffffffffffffffffffffffff021916908373ffffffffffffffffffffffffffffffffffffffff1602179055506005820160149054906101000a900460ff168160050160146101000a81548160ff021916908315150217905550905050600260006001805403815260200190815260200160002060008082016000905560018201600061254491906127df565b60028201600061255491906127df565b60038201600061256491906127df565b60048201600090556005820160006101000a81549073ffffffffffffffffffffffffffffffffffffffff02191690556005820160146101000a81549060ff021916905550507f7f5bdbe466284b9f27364d1a4332dcbb398e8ab932a93be1113f7b3724027f85836040518082815260200191505060405180910390a160019150506125fd565b808060010191505061239e565b50600090505b919050565b60e0604051908101604052806000815260200160608152602001606081526020016060815260200160008152602001600073ffffffffffffffffffffffffffffffffffffffff1681526020016000151581525090565b828054600181600116156101000203166002900490600052602060002090601f016020900481019282601f1061269957805160ff19168380011785556126c7565b828001600101855582156126c7579182015b828111156126c65782518255916020019190600101906126ab565b5b5090506126d49190612827565b5090565b828054600181600116156101000203166002900490600052602060002090601f016020900481019282601f1061271957805160ff1916838001178555612747565b82800160010185558215612747579182015b8281111561274657825182559160200191906001019061272b565b5b5090506127549190612827565b5090565b828054600181600116156101000203166002900490600052602060002090601f016020900481019282601f1061279157805485556127ce565b828001600101855582156127ce57600052602060002091601f016020900482015b828111156127cd5782548255916001019190600101906127b2565b5b5090506127db9190612827565b5090565b50805460018160011615610100020316600290046000825580601f106128055750612824565b601f0160209004906000526020600020908101906128239190612827565b5b50565b61284991905b8082111561284557600081600090555060010161282d565b5090565b9056fea165627a7a7230582058bd4247573f968d76096e4e0571b53bb80234614a27d3d2f8b048666e923cf80029",
  "source": "pragma solidity ^0.5.0;\r\n\r\ncontract Marketplace {\r\n    string public name;\r\n    uint public productCount = 0;\r\n    mapping(uint => Product) public products;\r\n\r\n    struct Product {\r\n        uint id;\r\n        string name;\r\n        string description;\r\n        string image;\r\n        uint price;\r\n        address  payable owner;\r\n        bool purchased;\r\n    }\r\n\r\n    event ProductCreated(\r\n        uint id,\r\n        string name,\r\n        string description,\r\n        string image,\r\n        uint price,\r\n        address payable owner,\r\n        bool purchased\r\n    );\r\n     event ProductUpdate(\r\n        string name,\r\n        string description,\r\n        string image,\r\n        uint price\r\n      \r\n    );\r\n    event ProductDelete(uint id);\r\n    event ProductPurchased(\r\n        uint id,\r\n        string name,\r\n        string description,\r\n        string image,\r\n        uint price,\r\n        address payable owner,\r\n        bool purchased\r\n    );\r\n     event ProductTrade(\r\n        uint id,\r\n        string name,\r\n        string description,\r\n        string image,\r\n        uint price,\r\n        address payable owner,\r\n        bool purchased\r\n    );\r\n\r\n    constructor() public {\r\n        name = \"GameTrade\";\r\n    }\r\n\r\n    function createProduct(string memory _name,string memory _description, string memory _image, uint _price) public {\r\n        // Require a valid name\r\n        require(bytes(_name).length > 0);\r\n        // Require a valid price\r\n       \r\n        // require a valid description\r\n        require(bytes(_description).length > 0);\r\n        // Increment product count\r\n        productCount ++;\r\n        // Create the product\r\n        products[productCount] = Product(productCount, _name, _description,_image,_price, msg.sender, false);\r\n        // Trigger an event\r\n        emit ProductCreated(productCount, _name,_description, _image, _price, msg.sender, false);\r\n    }\r\n    function updateProduct(uint _id ,string memory _name, string memory _description, string memory _image, uint _price) public payable returns (bool success){\r\n        Product memory _product = products[_id];\r\n        // Fetch the owner\r\n        address payable _seller = _product.owner;\r\n        require(_seller == msg.sender);\r\n       //This has a problem we need loop\r\n       for(uint256 i =0; i<=productCount; i++){\r\n           if(products[i].id ==_id){\r\n              products[i].name = _name;\r\n              products[i].description = _description;\r\n              products[i].image = _image;\r\n              products[i].price = _price;\r\n              emit ProductUpdate(_name, _description, _image,_price);\r\n              return true;\r\n           }\r\n       }\r\n       return false;\r\n   }\r\n   function deleteProduct(uint _id) public returns(bool success){\r\n        require(productCount > 0);\r\n        for(uint256 i =0; i<= productCount; i++){\r\n           if(products[i].id == _id){\r\n                products[i] = products[productCount-1]; \r\n                delete products[productCount-1];\r\n                //emit event\r\n                emit ProductDelete(_id);\r\n                return true;\r\n           }\r\n       }\r\n       return false;\r\n   }\r\n \r\n \r\n    function purchaseProduct(uint _id) public payable {\r\n        // Fetch the product\r\n        Product memory _product = products[_id];\r\n        // Fetch the owner\r\n        address payable _seller = _product.owner;\r\n        // Make sure the product has a valid id\r\n        require(_product.id > 0 && _product.id <= productCount);\r\n        // Require that there is enough Ether in the transaction\r\n        require(msg.value >= _product.price);\r\n        // Require that the product has not been purchased already\r\n        require(!_product.purchased);\r\n        // Require that the buyer is not the seller\r\n       \r\n        // Transfer ownership to the buyer\r\n        _product.owner = msg.sender;\r\n        // Mark as purchased\r\n        _product.purchased = false;\r\n        // Update the product\r\n        products[_id] = _product;\r\n        // Pay the seller by sending them Ether\r\n        address(_seller).transfer(msg.value);\r\n        // Trigger an event\r\n        emit ProductPurchased(productCount, _product.name, _product.description,_product.image,_product.price, msg.sender, true);\r\n\r\n    }\r\n      function purchaseTrade(uint _id,uint _id2) public payable {\r\n        // Fetch the product\r\n        Product memory _product = products[_id];\r\n         Product memory _product2 = products[_id2];\r\n        // Fetch the owner\r\n        address payable _seller = _product.owner;\r\n        \r\n        // Make sure the product has a valid id\r\n        require(_product.id > 0 && _product.id <= productCount);\r\n        // Require that there is enough Ether in the transaction\r\n        require(msg.value >= _product.price);\r\n        // Require that the product has not been purchased already\r\n        require(!_product.purchased);\r\n        // Require that the buyer is not the seller\r\n       _product.owner = msg.sender  ;\r\n        // Transfer ownership to the buyer\r\n        _product2.owner = _seller;\r\n       \r\n        // Mark as purchased\r\n        _product.purchased = false;\r\n        // Update the product\r\n        products[_id] = _product;\r\n        products[_id2] = _product2;\r\n        // Pay the seller by sending them Ether\r\n        address(_seller).transfer(msg.value);\r\n        // Trigger an event\r\n        emit ProductPurchased(productCount, _product.name, _product.description,_product.image,_product.price, msg.sender, true);\r\n\r\n    }\r\n    \r\n   \r\n}",
  "sourcePath": "C:/Users/TOSHIBA/Desktop/GamesTrade2/Frontend/src/contracts/Marketplace.sol",
  "compiler": {
    "name": "solc",
    "version": "0.5.0+commit.1d4f565a.Emscripten.clang"
  },
  "schemaVersion": "3.0.2",
  "updatedAt": "2019-12-16T23:55:58.503Z",
  "devdoc": {
    "methods": {}
  },
  "userdoc": {
    "methods": {}
  }
}